:03000000020BAC44
:0C0BAC00787FE4F6D8FD758150020BF351
:100CB3003030302F6D696E2030303A30303A30307A
:100CC300002020483A30303020204C3A3030302059
:100CD3002000202020202D20202D20202020573AC6
:100CE30020200020323020202D20202D20202020E5
:100CF3002020200020202073657420616C61726DB8
:100D030020202020003031323334353637383961F2
:100D1300626364656667008A8C88868482808183C7
:050D23008587898D8B1E
:100FD000014C00014B0001240001280001440018CD
:100FE00029000000000000000000000000000000D8
:090FF000000000000000000000F8
:10104B00E4FDFCC3ED9FEC9E5015E4FBFA0BBB00DB
:0F105B00010AEB646E4A70F50DBD00010C80E4D4
:01106A002263
:1010A600C2918F807F197E001210B7D2927F647E24
:0110B6000039
:0B10B700EF1FAC0670011E4C70F6220B
:0A110C00C292C2901210A6C29222F5
:100EA1007C007D64AF03AE021203847C007D0A12D4
:100EB1000384ED2430FF120ED07C007D0AAF03AE17
:0F0EC100021203847C007D0A120384ED2430FFAB
:0A0ED000C292D2901210A6C2922224
:0F0F76007BFFE4FD7F01120F857A0C79C47F02A7
:100F8500EDBF01042480800224C0FF12110C12035E
:100F95006BFF600C120ED0740129F9E43AFA80EE69
:010FA5002229
:1010DE00EDBF01042480800224C0FF12110CBB015D
:0B10EE00047F0F80027F0C12110C2207
:10108900EDBF01042480800224C0FF12110CEB750E
:0D109900F00A84E5F0900D0893FF020ED0E0
:100D2800AB457D027F01120D64AB437D057F011247
:100D38000D64AB267D087F01120D64AB277D0E7F05
:100D480001121089AB257D037F02120D64AB487D2B
:0C0D5800067F02120D64AB497D097F028A
:100D6400EDBF01042480800224C0FF12110CEB7536
:100D7400F00A84900D0893FF120ED0EB75F00A84EC
:070D8400E5F093FF020ED021
:10102300EDBF01042480800224C0FF12110C120EB4
:10103300A17F2E120ED0AE02AF037C007D0A1203F5
:0810430084ED2430FF020ED001
:100EDA00E54FFB7A007D047F02120EEDE550FB7DA3
:030EEA000B7F0279
:100EED00EDBF01042480800224C0FF12110C120EEC
:100EFD00A1AE02AF037C007D0A120384ED2430FF06
:030F0D00020ED001
:080E6600FB7D027F011210DE8A
:100E6E007F3812110C7F0C12110C7F0612110C7FA1
:100E7E00E87E031210B77A0C79B3120F76E54FFBAA
:100E8E007A007D047F02120EEDE550FB7D0B7F0292
:030E9E00020EED54
:040F1000A3E493FFC4
:100F1400D295E4F54DC293EF139294EFC313FFD22D
:100F240093054DE54DB408EDE4F54DC293ED1392F0
:100F340094EDC313FDD293054DE54DB408EDC29570
:010F4400228A
:040F4500A3E493FF8F
:100F4900D295E4FDC293EF139294EFC313FFD293AA
:100F59000DBD08F0E4FDC293EEC313FE30940343C4
:0C0F69000680D2930DBD08EEC295AF06C5
:010F75002259
:100FA600900D21E493FF120F498F26120F458F43B0
:100FB600120F458F45120F458F49120F458F481264
:0A0FC6000F458F25120F458F2722DB
:100DD800E4FD7F8E120F14900D1AE493FFAD2612D6
:100DE8000F14AD43120F10AD45120F10A3E493FF7B
:100DF800AD49120F14A3E493FFAD48120F14A3E4F6
:100E080093FFAD25120F14A3E493FFAD27120F141F
:070E18007D807F8E020F14A4
:100FFA00D2967F017E001210B7C2967F507E0012F1
:10100A0010B7D2967F0A7E001210B7A29692017F7D
:08101A00147E001210B7D296FB
:0110220022AB
:0210C200AD0778
:1010C400E4FBC296ED1392967F057E001210B7D210
:0910D40096EDC313FD0BBB08E906
:0110DD0022F0
:10106B00E4FBC296EDC313FDD29630960343058085
:0D107B007F057E001210B70BBB08E7AF0524
:011088002245
:100E1F00120FFA7FCC1210C27F441210C27F327EA3
:100E2F00001210B7120FFAC2AF7FCC1210C27FBEE2
:100E3F001210C2D2AF12106BAA0712106BEFFEEA9C
:100E4F00FFE4AD07AC061202B1E4FBFA7920783F5C
:060E5F001201061202EA76
:010E6500226A
:100D8B00754A1443B078E5B054786478603B7F01C2
:100D9B007E0012104BE5B054786478602FE521B4D7
:100DAB00012AE4F521E5B0547824C8601824E060EA
:100DBB001024F0600824F87013754A0422754A0356
:0C0DCB0022754A0222754A01227521019E
:010DD70022F9
:10073700E54A6401703C0546E546B4011975470171
:100747007BFF7A0C79D5E4FD7F01120F857A0C794E
:10075700E67F02120F85E546B4020A7547017A0C57
:1007670079F7120F76E546D394024006E4F5461270
:100777000E66E54AB40222E546B4010C0547E54793
:10078700D394074003754701E546B4020C0547E5D6
:1007970047D394024003754701E5466401600302AD
:1007A70009EDE5476401703EE54AB4031D0545E5DB
:1007B70045540FC3940A4008E54554F02410F54505
:1007C700E545C394244003E4F545E54AB40417E539
:1007D700457003754524E545540F7008E545440AFF
:1007E70024F0F5451545E5476402703EE54AB40334
:1007F7001D0543E543540FC3940A4008E54354F0ED
:100807002410F543E543C394604003E4F543E54A08
:10081700B40417E543700375435AE543540F700852
:10082700E543440A24F0F5431543E5476403703E66
:10083700E54AB4031D0526E526540FC3940A40086C
:10084700E52654F02410F526E526C394604003E41A
:10085700F526E54AB40417E526700375265AE526FA
:10086700540F7008E526440A24F0F5261526E547B7
:100877006404703FE54AB4031D0527E527540FC3F9
:10088700940A4008E52754F02410F527E527C39478
:10089700084003752701E54AB40418E527B40103A6
:1008A700752708E527540F7008E527440A24F0F553
:1008B700271527E5476405703FE54AB4031D05255D
:1008C700E525540FC3940A4008E52554F02410F594
:1008D70025E525C3949A4003752501E54AB4041814
:1008E700E525B4010375259AE525540F7008E5251C
:1008F700440A24F0F5251525E5476406703FE54AC7
:10090700B4031D0548E548540FC3940A4008E54859
:1009170054F02410F548E548C39413400375480183
:10092700E54AB40418E548B40103754813E548548B
:100937000F7008E548440A24F0F5481548E5476470
:1009470007703FE54AB4031D0549E549540FC394B1
:100957000A4008E54954F02410F549E549C39432A3
:100967004003E4F549E54AB40418E549B4010375C1
:100977004932E549540F7008E549440A24F0F5491E
:100987001549120D28E54714B4070050569009A2DF
:1009970075F003A4C58325F0C583730209B702095F
:1009A700BD0209C30209C90209D10209D90209E135
:1009B7007B017D0280107B017D05800A7B017D081C
:1009C70080047B017D0E7F0180167B017D037F0202
:1009D700800E7B017D067F0280067B017D097F02F9
:1009E7001210DE120DD8E5466402706AE547B401BD
:1009F70024E54AB4030C054FE54FC394FF4003E4D5
:100A0700F54FE54AB4040E154FE54FD39550500501
:100A1700E55004F54FE547B40221E54AB4030E0556
:100A270050E550C3954F4005E54F14F550E54AB4DE
:100A37000409E55070037550011550120EDAE547A9
:100A470024FE600904700F7B017D0480047B017D17
:070A57000B7F021210DE22EA
:0A111600D2AF758901D2A9D28C2254
:07112000D2A8D2AFD2882251
:1010F900E528D395504006E528954F4003B2B7221D
:03110900D2B72238
:100A5E00121116121120120E6E120D8BE54AC3944E
:100A6E000A50031207370523E52370020522C394AB
:100A7E002CE52294015003020BA2E4F522F523E5A6
:100A8E00466003020BA2E5247005F528020B5BE419
:100A9E00FBFA79A07840AF34AE33AD32AC311202EE
:100AAE000FC004C005C006C007E4FBFA79A0784069
:100ABE00AF30AE2FAD2EAC2D12020FD003D002D020
:100ACE0001D000120015C004C005C006C007E4FB2B
:100ADE00FA79A07840AF38AE37AD36AC3512020F8A
:100AEE00D003D002D001D000120015C004C005C042
:100AFE0006C007E4FBFA79A07840AF3CAE3BAD3AB6
:100B0E00AC3912020FD003D002D001D00012001562
:100B1E00C004C005C006C007E4FBFA79A07840AF58
:100B2E0040AE3FAD3EAC3D12020FD003D002D0011D
:100B3E00D000120015A804A905AA06AB077F007EF7
:100B4E00607D6A7C4712020F1202EA8F28AB457D48
:100B5E00087F01120D64AB437D0B7F01120D64AB58
:100B6E00267D0E7F01120D64120E1F8E418F42AB39
:100B7E0042AA417D0A7F01121023120FA6E528FB1F
:100B8E007A00E4FD7F01120EEDE52860051210F9E2
:0E0B9E008002D2B77F017E0012104B020A6760
:03000300020C38B4
:100C3800C0E0C0F0C083C082C0D075D000C000C082
:100C480001C002C003C004C005C006C007E54BC30D
:100C580094085004D28C8038E54B75F032A4AD8CE2
:100C68007C002DFFEC35F0FEAD8AEF2DFDEC3EFC4F
:100C7800E41202B1E54D25E025E02429F81203E746
:100C8800754B00054DE54DB40606754D01752401FB
:100C9800D007D006D005D004D003D002D001D000B0
:0B0CA800D0D0D082D083D0F0D0E0325A
:03000B000203F3FA
:1003F300C0E0C0F0C083C082C0D075D000C000C0D0
:1004030001C002C003C004C005C006C007758C3C10
:10041300758AB0054BE54BD39419400B754D0075A8
:100423004B00752400C28CE546D394024007754601
:1004330000E4120E66E54AB40222E546B4010C0557
:1004430047E547D394074003754701E546B4020CDB
:100453000547E547D394024003754701E546640128
:1004630060030206ACE5476401703EE54AB4031D30
:100473000545E545540FC3940A4008E54554F02467
:1004830010F545E545C394244003754500E54AB49A
:100493000417E5457003754524E545540F7008E5D9
:1004A30045440A24F0F5451545E5476402703EE5E9
:1004B3004AB4031D0543E543540FC3940A4008E5BA
:1004C3004354F02410F543E543C39460400375435C
:1004D30000E54AB40417E543700375435AE54354F2
:1004E3000F7008E543440A24F0F5431543E54764D8
:1004F30003703EE54AB4031D0526E526540FC39455
:100503000A4008E52654F02410F526E526C3946036
:100513004003752600E54AB40417E52670037526E3
:100523005AE526540F7008E526440A24F0F52615EB
:1005330026E5476404703FE54AB4031D0527E52714
:10054300540FC3940A4008E52754F02410F527E517
:1005530027C394084003752701E54AB40418E52727
:10056300B40103752708E527540F7008E527440AEB
:1005730024F0F5271527E5476405703FE54AB403E2
:100583001D0525E525540FC3940A4008E52554F0BD
:100593002410F525E525C3949A4003752501E54A02
:1005A300B40418E525B4010375259AE525540F70A5
:1005B30008E525440A24F0F5251525E5476406706A
:1005C3003FE54AB4031D0548E548540FC3940A4068
:1005D30008E54854F02410F548E548C39413400354
:1005E300754801E54AB40418E548B4010375481396
:1005F300E548540F7008E548440A24F0F5481548C7
:10060300E5476407703FE54AB4031D0549E54954CE
:100613000FC3940A4008E54954F02410F549E5490D
:10062300C394324003754900E54AB40418E549B45C
:100633000103754932E549540F7008E549440A241A
:10064300F0F5491549120D28E54714B40700505633
:1006530090066175F003A4C58325F0C58373020674
:100663007602067C0206820206880206900206983B
:100673000206A07B017D0280107B017D05800A7B41
:10068300017D0880047B017D0E7F0180167B017D47
:10069300037F02800E7B017D067F0280067B017D46
:1006A300097F021210DE120DD8E5466402706AE576
:1006B30047B40124E54AB4030C054FE54FC394FF47
:1006C3004003754F00E54AB4040E154FE54FD3952B
:1006D300505005E55004F54FE547B40221E54AB40F
:1006E300030E0550E550C3954F4005E54F14F550F3
:1006F300E54AB40409E55070037550011550120E14
:10070300DAE54724FE600904700F7B017D04800451
:100713007B017D0B7F021210DED007D006D005D0FF
:1007230004D003D002D001D000D0D0D082D083D067
:04073300F0D0E032F0
:10000E00020356E86480F8E933E83360110460F0C7
:10001E00ED33EC337009E8FCE9FDEAFEEBFF220458
:10002E0060DED3EB9FEA9EE99DE8C2E78CF0C2F753
:10003E0095F0400CE8CCF8E9CDF9EACEFAEBCFFB1F
:10004E0012032185D0F05804700320D5B3E8047054
:10005E00075002B2D502036092D5EC0460F7E4CCEF
:10006E00C0E0C398F8603B94186008400DD0E0FBE8
:10007E00020338E4FBFAC9FC8028E830E406E4C940
:10008E00FBE4CAFCE830E305E4C9CACBFCE854073C
:10009E006010F8C3E913F9EA13FAEB13FBEC13FC47
:1000AE00D8F130F52FC3E49CFCEF9BFFEE9AFEEDEA
:1000BE0099FDD0E0FBEF4E4D4C701222DB03020394
:1000CE005DEC2CFCEF33FFEE33FEED33FDED30E750
:1000DE00EB020338EF2BFFEE3AFEED39FDD0E0FBDD
:1000EE0050130BBB0003020360ED13FDEE13FEEF86
:0800FE0013FFEC13FC020338B0
:10010600EC4D6011E8497017ED33EC3304600DE4F3
:10011600FCFFFEFD22E933E8330470F802035612B1
:10012600032158046009E4CC2481500628500902B2
:10013600036028400302035DC0E0EB4A7044B980C7
:1001460006D0E0FB02034CEF4E701CBD8008EBFFAF
:10015600EAFEE9FD80EBE98DF0A4FEE5F00201EF91
:10016600E9CDF9EAFEEBFFEF89F0A4FCE5F0CE89D4
:10017600F0A42EFFE435F0CD89F0A42DFEE435F091
:100186008067EF4E7005BD80D780C3EF8BF0A4ACBF
:10019600F0EE8BF0A42CFCE435F0F8EF8AF0A42CFA
:1001A600E5F038FCE433CB8DF0A42CFCE5F03BF80D
:1001B600EE8AF0A42CFCE5F038F8E433CF89F0A4FD
:1001C6002CFCE5F038CF3400CE89F0A42FFFE5F003
:1001D6003EFEE433C98DF0A42EFEE5F039CD8AF05B
:1001E600A42FFFE5F03EFEE43DFD33D0E0FB5007D3
:1001F6000BBB000F020360EC2CFCEF33FFEE33FE6B
:06020600ED33FD02033898
:10020C00020360EC5D046005E859047003020356B8
:10021C00120321580460F6EC4860F2EC7004FDFE09
:10022C00FF22C860DB2481C85009C39860025006C5
:10023C0002035D9850CAF582E9294B4A7005AB82DE
:10024C0002034C75F0007C1A7880C3EF9BEE9AED9C
:10025C0099400DC3EF9BFFEE9AFEED99FDE842F03D
:10026C00DC23ACF0D0E0FFD0E0FED0E0FDAB822090
:10027C00E7101BEB60BAEC2CFCEF33FFEE33FEED1A
:10028C0033FD020338E803F830E705C0F075F000E1
:10029C00EF2FFFEE33FEED33FD40B830E7C280AAFE
:1002AC0075F020800E75F010800575F0087D007ECD
:1002BC00007F003392D530D5031203D9EC334010B4
:1002CC00EF33FFEE33FEED33FDEC33FCD5F0ED22D6
:0E02DC00E5F0247EA2D513CC92E7CDCEFF2212
:1002EA00EDD2E7CD33EC3392D524814006E4FFFE0C
:1002FA00FDFC22FCE4CFCECDCC24E0501174FF806B
:10030A00EDC3CC13CCCD13CDCE13CECF13CF047007
:07031A00F030D5DE0203D92B
:10032100E9D2E7C933E833F892D5EDD2E7CD33EC22
:0703310033FC5002B2D5229B
:10033800EC30E7100FBF000C0EBE00080DBD000426
:100348000BEB6014A2D5EB13FCED92E7FD2274FFD2
:10035800FCFDFEFF22E480F8A2D574FF13FC7D802B
:03036800E480EF3F
:100BB800020A5EE493A3F8E493A34003F68001F2EB
:100BC80008DFF48029E493A3F85407240CC8C3333E
:100BD800C4540F4420C8834004F456800146F6DF0D
:100BE800E4800B0102040810204080900FD0E47EBE
:100BF800019360BCA3FF543F30E509541FFEE49302
:100C0800A360010ECF54C025E060A840B8E493A3C8
:100C1800FAE493A3F8E493A3C8C582C8CAC583CAF3
:100C2800F0A3C8C582C8CAC583CADFE9DEE780BEAB
:010FF90000F7
:10036B00BB010689828A83E0225002E722BBFE0290
:09037B00E32289828A83E49322C3
:10038400BC000BBE0029EF8DF084FFADF022E4CC5D
:10039400F875F008EF2FFFEE33FEEC33FCEE9DEC26
:1003A400984005FCEE9DFE0FD5F0E9E4CEFD22ED6C
:1003B400F8F5F0EE8420D21CFEADF075F008EF2FB6
:1003C400FFED33FD4007985006D5F0F222C398FDA7
:0503D4000FD5F0EA2244
:0E03D900C3E49FFFE49EFEE49DFDE49CFC2235
:0C03E700ECF608EDF608EEF608EFF62242
:00000001FF
